:04000000A6EF3FF038
:107F4C000001D2EF3FF0000E026E000E016E000E2B
:107F5C00046E000E036E034A042A04BEBFEF3FF00A
:107F6C00E80E035C030E0458D8A0BFEF3FF0C1EF3E
:107F7C003FF0B1EF3FF0014A022A02BECFEF3FF0D3
:107F8C00E80E015C030E0258D8A0CFEF3FF0D1EF02
:107F9C003FF0ADEF3FF01200FA0ECB6E000EBE6E4E
:107FAC000C0EBD6E000E936E550E816E9494000EE9
:107FBC00CC6E000ECA6ECA84000E066E000E056EE4
:107FCC0005C0BEFF811EA9EC3FF0320E0526000E47
:107FDC00062206BEFAEF3FF0065008E10528D8A0AD
:107FEC00FAEF3FF0FCEF3FF0E6EF3FF0E2EF3FF04F
:047FFC0000EF00F0A2
:020000040020DA
:08000000FFFFFFFFFFFFFFFF00
:020000040030CA
:0E00000000051F1FFF8385FF0FC00FE00F409C
:00000001FF
