:04000000A5EF3FF039
:107F4A000001D1EF3FF0000E026E000E016E000E2E
:107F5A00046E000E036E034A042A04BEBEEF3FF00D
:107F6A00E80E035C030E0458D8A0BEEF3FF0C0EF42
:107F7A003FF0B0EF3FF0014A022A02BECEEF3FF0D7
:107F8A00E80E015C030E0258D8A0CEEF3FF0D0EF06
:107F9A003FF0ACEF3FF01200FA0ECB6E000EBE6E51
:107FAA000C0EBD6E000ECC6E000E936E550E816ED9
:107FBA00000ECA6E9494CA84000E066E000E056EF8
:107FCA0005C0BEFF811EA8EC3FF0320E0526000E4A
:107FDA00062206BEFAEF3FF0065009E1FB0E055CE9
:107FEA00D8A0FAEF3FF0FCEF3FF0E5EF3FF0E1EF0A
:067FFA003FF000EF00F073
:020000040020DA
:08000000FFFFFFFFFFFFFFFF00
:020000040030CA
:0E00000000051F1FFF8385FF0FC00FE00F409C
:00000001FF
