:020000040000FA
:1008000007EF04F0FF00FF00058209ED04F05FEF41
:1008100004F006009EA00FEF04F011EF04F050EF7B
:1008200004F003500410D8B418EF04F01AEF04F0E9
:100830002DEF04F00A0E01180210D8A422EF04F0E4
:1008400024EF04F02DEF04F0000E046E000E036E92
:10085000809A000E026E000E016E03500410D8A4A0
:1008600034EF04F036EF04F049EF04F0280E0118DD
:100870000210D8A43EEF04F040EF04F049EF04F07A
:10088000000E046E010E036E808A000E026E000ED2
:10089000016E014A022A9E906D0ECF6E860ECE6EBC
:1008A00005921100B00ECD6E929A809A9D809E9016
:1008B000F28CF28ECD805BEF04F007EF04F0046A57
:1008C000036A026A016A05900592000152EF04F082
:020000040020DA
:08000000FFFFFFFFFFFFFFFF00
:020000040030CA
:0E00000000051F1FFF8385FF0FC00FE00F409C
:00000001FF
