:020000040000FA
:1008000007EF04F0FF00FF00058209ED04F065EF3B
:1008100004F006009EA00FEF04F011EF04F052EF79
:1008200004F0F29E034A042A01500210D8B41BEFD0
:1008300004F01DEF04F030EF04F0280E031804104C
:10084000D8A425EF04F027EF04F030EF04F0000EF9
:10085000026E000E016E809A000E046E000E036E92
:1008600001500210D8A437EF04F039EF04F04CEF38
:1008700004F0140E03180410D8A441EF04F043EF61
:1008800004F04CEF04F0000E026E010E016E808A3F
:10089000000E046E000E036E6E0ECF6EF60ECE6E60
:1008A0009E90F28E05921100300ECD6E6E0ECF6EC0
:1008B000F60ECE6E929A809A9D809E90F28CF28E69
:1008C000CD8061EF04F007EF04F0046A036A026A66
:1008D000016A05900592000154EF04F0FF00FF004B
:020000040020DA
:08000000FFFFFFFFFFFFFFFF00
:020000040030CA
:0E00000000051F1FFF8385FF0FC00FE00F409C
:00000001FF
