:0400000007EF00F016
:10000800058232ED00F04EEF00F0000E026E000E99
:10001800016E000E046E000E036E034A042A04BE2D
:100028001FEF00F0D00E035C070E0458D8A01FEF96
:1000380000F021EF00F011EF00F0014A022A02BEA1
:100048002FEF00F0D00E015C070E0258D8A02FEF5A
:1000580000F031EF00F00DEF00F012000600F0A004
:1000680038EF00F03AEF00F03FEF00F0F29E8088A2
:1000780009EC00F08098F090F28E059211009298A9
:100088009382F19AF090F086F28CF28E4AEF00F0AB
:0E00980007EF00F005900592000143EF00F025
:020000040020DA
:08000000FFFFFFFFFFFFFFFF00
:020000040030CA
:0E00000000051F1FFF8385FF0FC00FE00F409C
:00000001FF
