:04000000BEEF04F05B
:0F080000004D6164686176003233333832000096
:100810000F0EC16E000E936E92909292380E98EC6D
:1008200004F0010E98EC04F0000E026E640E016EEE
:100830006CEC04F0800E98EC04F0080E096E080EC3
:100840000A6E2DEF04F009C0F6FF0AC0F7FF08009A
:10085000F550ABEC04F0094A0A2A09C0F6FF0AC0B9
:10086000F7FF0800F5500009D8A439EF04F03BEF7A
:1008700004F023EF04F0000E026E640E016E6CECC7
:1008800004F0C00E98EC04F0010E0B6E080E0C6E16
:1008900054EF04F00BC0F6FF0CC0F7FF0800F55052
:1008A000ABEC04F00B4A0C2A0BC0F6FF0CC0F7FFB0
:1008B0000800F5500009D8A460EF04F062EF04F0DE
:1008C0004AEF04F0000E026E640E016E6CEC04F050
:1008D00068EF04F000EF00F0000E056E000E046EED
:1008E00088EF04F0000E076E000E066E064A072A17
:1008F00007BE84EF04F0E80E065C030E0758D8A08C
:1009000084EF04F086EF04F076EF04F0044A052A41
:100910000150045C0550800A036E0250800A03589F
:10092000D8A095EF04F097EF04F072EF04F01200F6
:10093000086E809008C081FF8082000E026E010E5A
:10094000016E6CEC04F08092000E026E010E016EDE
:100950006CEC04F01200086E808008C081FF808279
:10096000000E026E010E016E6CEC04F08092000E1F
:10097000026E010E016E6CEC04F01200000EF86EB7
:0A098000080EF76E000108EF04F006
:020000040020DA
:08000000FFFFFFFFFFFFFFFF00
:020000040030CA
:0E00000000051F1FFF8385FF0FC00FE00F409C
:00000001FF
