:0600000000F0BBEF1FF051
:103F7400FFFF0001BEEF1FF0FFFF000E0101C96F3C
:103F8400000EC86F000ECB6F000ECA6FFFFFD890F3
:103F9400CA35D96ECB35DA6E000ED926010EDA2277
:103FA400010EDE6E000EDD6ED890CA35D96ECB35AB
:103FB400DA6E000ED926010EDA22DE50C827DD5053
:103FC400C923CA4BCB2BCBBFF1EF1FF0CB510AE176
:103FD400640ECA5DD8A0F1EF1FF0F4EF1FF0FFFFED
:103FE400C8EF1FF0FFFF000E936EC8C181FF000EE3
:0C3FF400C96F640EC86F01EF00F0FFFF02
:020000040020DA
:08000000FFFFFFFFFFFFFFFF00
:020000040030CA
:04000000FF270F0FB8
:0800060085FF0FC00FE00F4061
:00000001FF
