:0600000000F0BBEF1FF051
:103F7400FFFF0001BEEF1FF0FFFF000EE06E000E1A
:103F84000101CB6F000ECA6FFFFFD890CA35D96EFE
:103F9400CB35DA6E000ED926010EDA22010EDE6E62
:103FA400000EDD6ED890CA35D96ECB35DA6E000EB0
:103FB400D926010EDA22DE50C827DD50C923CA4BA8
:103FC400CB2BCBBFEFEF1FF0CB510AE1640ECA5DE0
:103FD400D8A0EFEF1FF0F2EF1FF0FFFFC6EF1FF0C6
:103FE400FFFF010EE06EC8C1D6FFC9C1D7FF000EA6
:0C3FF400C96F640EC86F01EF00F0FFFF02
:020000040020DA
:08000000FFFFFFFFFFFFFFFF00
:020000040030CA
:04000000FF270F0FB8
:0800060085FF0FC00FE00F4061
:00000001FF
